{
  "address": "0xe007976dc6A2C2BD556fb71928F89e8E28A2749D",
  "abi": [
    {
      "inputs": [
        {
          "internalType": "contract IERC165[]",
          "name": "contracts",
          "type": "address[]"
        },
        {
          "internalType": "bytes4",
          "name": "interfaceId",
          "type": "bytes4"
        }
      ],
      "name": "supportsInterface",
      "outputs": [
        {
          "internalType": "bool[]",
          "name": "result",
          "type": "bool[]"
        }
      ],
      "stateMutability": "view",
      "type": "function"
    },
    {
      "inputs": [
        {
          "internalType": "contract IERC165[]",
          "name": "contracts",
          "type": "address[]"
        },
        {
          "internalType": "bytes4[]",
          "name": "interfaceIds",
          "type": "bytes4[]"
        }
      ],
      "name": "supportsMultipleInterfaces",
      "outputs": [
        {
          "internalType": "bool[]",
          "name": "result",
          "type": "bool[]"
        }
      ],
      "stateMutability": "view",
      "type": "function"
    }
  ],
  "transactionHash": "0xcaf65699c13aa0e5800fae76928ef667a6d08d766f87b646a9c08e5926ac8924",
  "args": [],
  "numDeployments": 1,
  "solcInputHash": "bcc5eac87dcc1d7972ffb659437c53c6",
  "bytecode": "0x608060405234801561001057600080fd5b50610a00806100206000396000f3fe608060405234801561001057600080fd5b50600436106100365760003560e01c806377ac7de51461003b578063f5414aaa1461006b575b600080fd5b6100556004803603810190610050919061054a565b61009b565b6040516100629190610695565b60405180910390f35b6100856004803603810190610080919061070f565b6102e2565b6040516100929190610695565b60405180910390f35b60608484905067ffffffffffffffff8111156100ba576100b961076f565b5b6040519080825280602002602001820160405280156100e85781602001602082028036833780820191505090505b509050600085859050905060005b818110156102d85761012e8787838181106101145761011361079e565b5b9050602002016020810190610129919061083d565b610472565b156102c55760018382815181106101485761014761079e565b5b602002602001019015159081151581525050600085859050905060005b818110156102c25760008787838181106101825761018161079e565b5b9050602002016020810190610197919061086a565b90508989858181106101ac576101ab61079e565b5b90506020020160208101906101c1919061083d565b73ffffffffffffffffffffffffffffffffffffffff166301ffc9a7617530836040518363ffffffff1660e01b81526004016101fc91906108a6565b6020604051808303818786fa9350505050801561023757506040513d601f19601f8201168201806040525081019061023491906108ed565b60015b61027a576101dc5a1161024d5761024c61091a565b5b60008685815181106102625761026161079e565b5b602002602001019015159081151581525050506102c2565b806102ad5760008786815181106102945761029361079e565b5b60200260200101901515908115158152505050506102c2565b505080806102ba90610982565b915050610165565b50505b80806102d090610982565b9150506100f6565b5050949350505050565b60608383905067ffffffffffffffff8111156103015761030061076f565b5b60405190808252806020026020018201604052801561032f5781602001602082028036833780820191505090505b50905060005b8484905081101561046a576103708585838181106103565761035561079e565b5b905060200201602081019061036b919061083d565b610472565b15610457578484828181106103885761038761079e565b5b905060200201602081019061039d919061083d565b73ffffffffffffffffffffffffffffffffffffffff166301ffc9a7617530856040518363ffffffff1660e01b81526004016103d891906108a6565b6020604051808303818786fa9350505050801561041357506040513d601f19601f8201168201806040525081019061041091906108ed565b60015b61042e576101dc5a116104295761042861091a565b5b610456565b808383815181106104425761044161079e565b5b602002602001019015159081151581525050505b5b808061046290610982565b915050610335565b509392505050565b600080823b905060008111915050919050565b600080fd5b600080fd5b600080fd5b600080fd5b600080fd5b60008083601f8401126104b4576104b361048f565b5b8235905067ffffffffffffffff8111156104d1576104d0610494565b5b6020830191508360208202830111156104ed576104ec610499565b5b9250929050565b60008083601f84011261050a5761050961048f565b5b8235905067ffffffffffffffff81111561052757610526610494565b5b60208301915083602082028301111561054357610542610499565b5b9250929050565b6000806000806040858703121561056457610563610485565b5b600085013567ffffffffffffffff8111156105825761058161048a565b5b61058e8782880161049e565b9450945050602085013567ffffffffffffffff8111156105b1576105b061048a565b5b6105bd878288016104f4565b925092505092959194509250565b600081519050919050565b600082825260208201905092915050565b6000819050602082019050919050565b60008115159050919050565b61060c816105f7565b82525050565b600061061e8383610603565b60208301905092915050565b6000602082019050919050565b6000610642826105cb565b61064c81856105d6565b9350610657836105e7565b8060005b8381101561068857815161066f8882610612565b975061067a8361062a565b92505060018101905061065b565b5085935050505092915050565b600060208201905081810360008301526106af8184610637565b905092915050565b60007fffffffff0000000000000000000000000000000000000000000000000000000082169050919050565b6106ec816106b7565b81146106f757600080fd5b50565b600081359050610709816106e3565b92915050565b60008060006040848603121561072857610727610485565b5b600084013567ffffffffffffffff8111156107465761074561048a565b5b6107528682870161049e565b93509350506020610765868287016106fa565b9150509250925092565b7f4e487b7100000000000000000000000000000000000000000000000000000000600052604160045260246000fd5b7f4e487b7100000000000000000000000000000000000000000000000000000000600052603260045260246000fd5b600073ffffffffffffffffffffffffffffffffffffffff82169050919050565b60006107f8826107cd565b9050919050565b600061080a826107ed565b9050919050565b61081a816107ff565b811461082557600080fd5b50565b60008135905061083781610811565b92915050565b60006020828403121561085357610852610485565b5b600061086184828501610828565b91505092915050565b6000602082840312156108805761087f610485565b5b600061088e848285016106fa565b91505092915050565b6108a0816106b7565b82525050565b60006020820190506108bb6000830184610897565b92915050565b6108ca816105f7565b81146108d557600080fd5b50565b6000815190506108e7816108c1565b92915050565b60006020828403121561090357610902610485565b5b6000610911848285016108d8565b91505092915050565b7f4e487b7100000000000000000000000000000000000000000000000000000000600052600160045260246000fd5b7f4e487b7100000000000000000000000000000000000000000000000000000000600052601160045260246000fd5b6000819050919050565b600061098d82610978565b91507fffffffffffffffffffffffffffffffffffffffffffffffffffffffffffffffff82036109bf576109be610949565b5b60018201905091905056fea264697066735822122094ab5f9f6e3c364f29da7f66db42ac429461df11f767f9c82e315ab4faede87a64736f6c634300080d0033",
  "devdoc": {
    "kind": "dev",
    "methods": {},
    "version": 1
  },
  "userdoc": {
    "kind": "user",
    "methods": {},
    "version": 1
  },
  "storageLayout": {
    "storage": [],
    "types": null
  }
}